{
  "transactions": [
    {
      "hash": "0x8952afdc508059f787fd221b99825497fc7106afdb1c6e33a9d8a565b6c325fe",
      "transactionType": "CREATE",
      "contractName": "VaultSupplyModule",
      "contractAddress": "0xd0be497f8b8bee57cfea779ca87e1ae272032202",
      "function": null,
      "arguments": null,
      "transaction": {
        "from": "0xf5ac5943d16fc865824910033b756519dc396682",
        "gas": "0x7e303",
        "value": "0x0",
        "input": "0x60808060405234601557610646908161001a8239f35b5f80fdfe6080806040526004361015610012575f80fd5b5f3560e01c63cb0b5af214610025575f80fd5b346101695760407ffffffffffffffffffffffffffffffffffffffffffffffffffffffffffffffffc3601126101695761005d8161016d565b60043573ffffffffffffffffffffffffffffffffffffffff81168103610169578152602435602082015260ff7f09ba4f032e25ab064c0a0b578597c657b2f04d2ad4f0677d98d0b504efa6c8005416906040516100b98161016d565b6002815260208101927f32350000000000000000000000000000000000000000000000000000000000008452156100f5576100f3826101f7565b005b604491507fffffffffffffffffffffffffffffffffffffffffffffffffffffffffffffffe0601f6040519485937f08c379a0000000000000000000000000000000000000000000000000000000008552602060048601525180918160248701528686015e5f85828601015201168101030190fd5b5f80fd5b6040810190811067ffffffffffffffff82111761018957604052565b7f4e487b71000000000000000000000000000000000000000000000000000000005f52604160045260245ffd5b90601f7fffffffffffffffffffffffffffffffffffffffffffffffffffffffffffffffe0910116810190811067ffffffffffffffff82111761018957604052565b600490602073ffffffffffffffffffffffffffffffffffffffff825116604051938480927f38d52e0f0000000000000000000000000000000000000000000000000000000082525afa918215610473575f92610538575b5060208101517fffffffffffffffffffffffffffffffffffffffffffffffffffffffffffffffff810361053257506040517f70a0823100000000000000000000000000000000000000000000000000000000815230600482015260208160248173ffffffffffffffffffffffffffffffffffffffff87165afa908115610473575f91610500575b50905b81156104fb5773ffffffffffffffffffffffffffffffffffffffff5f931673ffffffffffffffffffffffffffffffffffffffff82511690604051906020868184017f095ea7b3000000000000000000000000000000000000000000000000000000008152856024860152876044860152604485526103576064866101b6565b84519082855af186513d826104dc575b50501561047e575b505050602073ffffffffffffffffffffffffffffffffffffffff8251166044604051809681937f6e553f650000000000000000000000000000000000000000000000000000000083528760048401523060248401525af1928315610473575f9361041f575b507f4392e9f714f0c07c536ae14b4b5ea6c2c3203e3f6d8a355b3a41607ad66268249173ffffffffffffffffffffffffffffffffffffffff60409251169382519182526020820152a2565b9092506020813d60201161046b575b8161043b602093836101b6565b810103126101695751917f4392e9f714f0c07c536ae14b4b5ea6c2c3203e3f6d8a355b3a41607ad66268246103d4565b3d915061042e565b6040513d5f823e3d90fd5b6104cf6104d493604051907f095ea7b30000000000000000000000000000000000000000000000000000000060208301526024820152876044820152604481526104c96064826101b6565b82610589565b610589565b5f808061036f565b9091501587146104f35750803b15155b5f80610367565b6001146104ec565b505050565b90506020813d60201161052a575b8161051b602093836101b6565b8101031261016957515f6102d5565b3d915061050e565b906102d8565b9091506020813d602011610581575b81610554602093836101b6565b81010312610169575173ffffffffffffffffffffffffffffffffffffffff8116810361016957905f61024e565b3d9150610547565b905f602091828151910182855af115610473575f513d610607575073ffffffffffffffffffffffffffffffffffffffff81163b155b6105c55750565b73ffffffffffffffffffffffffffffffffffffffff907f5274afe7000000000000000000000000000000000000000000000000000000005f521660045260245ffd5b600114156105be56fea2646970667358221220561697b07c821c33ae21c5a5c74270f50e1035f55ee7e9612a277995ee176f8364736f6c634300081b0033",
        "nonce": "0x40",
        "chainId": "0x1"
      },
      "additionalContracts": [],
      "isFixedGasLimit": false
    },
    {
      "hash": "0xc4923da936da2151237c4d0e8752e17fa15b98e7363e9d6af887199f9838ce34",
      "transactionType": "CALL",
      "contractName": null,
      "contractAddress": "0x6c520b2f5dadcfda822aaf7f2b7470b3a686fe1a",
      "function": "setModule(string,address)",
      "arguments": [
        "VaultSupplyModule",
        "0xd0BE497F8b8BEE57cfEa779CA87E1Ae272032202"
      ],
      "transaction": {
        "from": "0xf5ac5943d16fc865824910033b756519dc396682",
        "to": "0x6c520b2f5dadcfda822aaf7f2b7470b3a686fe1a",
        "gas": "0x23d4f",
        "value": "0x0",
        "input": "0x8752be670000000000000000000000000000000000000000000000000000000000000040000000000000000000000000d0be497f8b8bee57cfea779ca87e1ae27203220200000000000000000000000000000000000000000000000000000000000000115661756c74537570706c794d6f64756c65000000000000000000000000000000",
        "nonce": "0x41",
        "chainId": "0x1"
      },
      "additionalContracts": [],
      "isFixedGasLimit": false
    },
    {
      "hash": "0xa80ddcef673394c5b9d8d4f9c6545261a902ceb1c7dd4514dc9858720c39e7b0",
      "transactionType": "CALL",
      "contractName": null,
      "contractAddress": "0xb402e0479579b00f9dafc0526234bbc4583920b4",
      "function": "setRegisteredModule(address,bool)",
      "arguments": [
        "0xd0BE497F8b8BEE57cfEa779CA87E1Ae272032202",
        "true"
      ],
      "transaction": {
        "from": "0xf5ac5943d16fc865824910033b756519dc396682",
        "to": "0xb402e0479579b00f9dafc0526234bbc4583920b4",
        "gas": "0x1254a",
        "value": "0x0",
        "input": "0xcfa65b7c000000000000000000000000d0be497f8b8bee57cfea779ca87e1ae2720322020000000000000000000000000000000000000000000000000000000000000001",
        "nonce": "0x42",
        "chainId": "0x1"
      },
      "additionalContracts": [],
      "isFixedGasLimit": false
    }
  ],
  "receipts": [
    {
      "status": "0x1",
      "cumulativeGasUsed": "0x1189a86",
      "logs": [],
      "logsBloom": "0x00000000000000000000000000000000000000000000000000000000000000000000000000000000000000000000000000000000000000000000000000000000000000000000000000000000000000000000000000000000000000000000000000000000000000000000000000000000000000000000000000000000000000000000000000000000000000000000000000000000000000000000000000000000000000000000000000000000000000000000000000000000000000000000000000000000000000000000000000000000000000000000000000000000000000000000000000000000000000000000000000000000000000000000000000000000",
      "type": "0x2",
      "transactionHash": "0xa80ddcef673394c5b9d8d4f9c6545261a902ceb1c7dd4514dc9858720c39e7b0",
      "transactionIndex": "0xb2",
      "blockHash": "0xce601de1dce36de57b8fe01cf4a77fd39d61cbc3ff98b343ceab26f5d6975a29",
      "blockNumber": "0x173d780",
      "gasUsed": "0x61116",
      "effectiveGasPrice": "0xbdeaf1b",
      "from": "0xf5ac5943d16fc865824910033b756519dc396682",
      "to": null,
      "contractAddress": "0xd0be497f8b8bee57cfea779ca87e1ae272032202"
    },
    {
      "status": "0x1",
      "cumulativeGasUsed": "0x1b02c61",
      "logs": [
        {
          "address": "0x6c520b2f5dadcfda822aaf7f2b7470b3a686fe1a",
          "topics": [
            "0x4290f9ffbc8f9ec1b8eb4c93a59cadc8ac09a13e42d669f278e6fd4f94f3d215",
            "0x9618516cde46a78b3ba0d2fca9a8ac28f83cc96a9744974ddfa0cf06ba896a15",
            "0x000000000000000000000000d0be497f8b8bee57cfea779ca87e1ae272032202"
          ],
          "data": "0x000000000000000000000000000000000000000000000000000000000000002000000000000000000000000000000000000000000000000000000000000000115661756c74537570706c794d6f64756c65000000000000000000000000000000",
          "blockHash": "0x663b291569fc276047f1859c643c8426ce4195fd41eaf1fe65a7e4b4bc7afe72",
          "blockNumber": "0x173d788",
          "blockTimestamp": "0x698091b3",
          "transactionHash": "0xc4923da936da2151237c4d0e8752e17fa15b98e7363e9d6af887199f9838ce34",
          "transactionIndex": "0xe8",
          "logIndex": "0x2f2",
          "removed": false
        }
      ],
      "logsBloom": "0x00000000000000000000000000000000000400020000000000000000000000000080000000000000000000000000000000000000000000820000000000000000000000000000000000000000000000000020000000000000000000000040000000200000000000000000000000000000000000000000000000000000000000000000000000000000000000000000200000008000000000000000000000000000000000000000000000000000000000000000000000000000000000000000000000000000000000000000000000000000000000000000000000000800000000000000000000000000000000000000000200000000000000000000000000000000",
      "type": "0x2",
      "transactionHash": "0xc4923da936da2151237c4d0e8752e17fa15b98e7363e9d6af887199f9838ce34",
      "transactionIndex": "0xe8",
      "blockHash": "0x663b291569fc276047f1859c643c8426ce4195fd41eaf1fe65a7e4b4bc7afe72",
      "blockNumber": "0x173d788",
      "gasUsed": "0x18802",
      "effectiveGasPrice": "0xac15e47",
      "from": "0xf5ac5943d16fc865824910033b756519dc396682",
      "to": "0x6c520b2f5dadcfda822aaf7f2b7470b3a686fe1a",
      "contractAddress": null
    },
    {
      "status": "0x1",
      "cumulativeGasUsed": "0x1b100b8",
      "logs": [
        {
          "address": "0xb402e0479579b00f9dafc0526234bbc4583920b4",
          "topics": [
            "0xb6f63386811026387bb3d2eea530c388794843a274e57f1c05ab6d28ce650482",
            "0x000000000000000000000000d0be497f8b8bee57cfea779ca87e1ae272032202"
          ],
          "data": "0x00000000000000000000000000000000000000000000000000000000000000000000000000000000000000000000000000000000000000000000000000000001",
          "blockHash": "0x663b291569fc276047f1859c643c8426ce4195fd41eaf1fe65a7e4b4bc7afe72",
          "blockNumber": "0x173d788",
          "blockTimestamp": "0x698091b3",
          "transactionHash": "0x8952afdc508059f787fd221b99825497fc7106afdb1c6e33a9d8a565b6c325fe",
          "transactionIndex": "0xe9",
          "logIndex": "0x2f3",
          "removed": false
        }
      ],
      "logsBloom": "0x00000000000000008000000000000000000400000000000000000000000000000080000000000000000000000000000000000000000000000004000000000000000000000000000000000000000000000000000000000000000000000000000000000000000000000000000000000000000000080000000000000000000000000000000000000000002000000000000000000000000000000000000000000000000000000000000000000000000000000000000000000000000000000000000000000000000000000000000000000000000000000000000000000800000800000000000000002000000000000000000000000000000000000000000000000000",
      "type": "0x2",
      "transactionHash": "0x8952afdc508059f787fd221b99825497fc7106afdb1c6e33a9d8a565b6c325fe",
      "transactionIndex": "0xe9",
      "blockHash": "0x663b291569fc276047f1859c643c8426ce4195fd41eaf1fe65a7e4b4bc7afe72",
      "blockNumber": "0x173d788",
      "gasUsed": "0xd457",
      "effectiveGasPrice": "0xac15e47",
      "from": "0xf5ac5943d16fc865824910033b756519dc396682",
      "to": "0xb402e0479579b00f9dafc0526234bbc4583920b4",
      "contractAddress": null
    }
  ],
  "libraries": [],
  "pending": [],
  "returns": {},
  "timestamp": 1770033593013,
  "chain": 1,
  "commit": "874bbde"
}