{
  "transactions": [
    {
      "hash": "0xb4075105429602b199afac9727d18eb3bac3e20843609a0e164e5f7cfcd422ee",
      "transactionType": "CALL",
      "contractName": null,
      "contractAddress": "0xc9b53ab2679f573e480d01e0f49e2b5cfb7a3eab",
      "function": "approve(address,uint256)",
      "arguments": [
        "0xf8D4d9cA30E87729448a8D9Eadc5C990cFD40d64",
        "1000000000000000000"
      ],
      "transaction": {
        "from": "0x0e9852b16ae49c99b84b0241e3c6f4a5692c6b05",
        "to": "0xc9b53ab2679f573e480d01e0f49e2b5cfb7a3eab",
        "gas": "0x1246b3",
        "value": "0x0",
        "input": "0x095ea7b3000000000000000000000000f8d4d9ca30e87729448a8d9eadc5c990cfd40d640000000000000000000000000000000000000000000000000de0b6b3a7640000",
        "nonce": "0x2da",
        "chainId": "0xa729"
      },
      "additionalContracts": [],
      "isFixedGasLimit": false
    },
    {
      "hash": "0x631016817b10bca62014bb00808f05629ed017ed246e3b321b1c67c67bf330b3",
      "transactionType": "CALL",
      "contractName": null,
      "contractAddress": "0xf8d4d9ca30e87729448a8d9eadc5c990cfd40d64",
      "function": "deposit(uint256,address)",
      "arguments": [
        "1000000000000000000",
        "0x0E9852b16AE49C99B84b0241E3C6F4a5692C6b05"
      ],
      "transaction": {
        "from": "0x0e9852b16ae49c99b84b0241e3c6f4a5692c6b05",
        "to": "0xf8d4d9ca30e87729448a8d9eadc5c990cfd40d64",
        "gas": "0x177931",
        "value": "0x0",
        "input": "0x6e553f650000000000000000000000000000000000000000000000000de0b6b3a76400000000000000000000000000000e9852b16ae49c99b84b0241e3c6f4a5692c6b05",
        "nonce": "0x2db",
        "chainId": "0xa729"
      },
      "additionalContracts": [],
      "isFixedGasLimit": false
    }
  ],
  "receipts": [
    {
      "status": "0x1",
      "cumulativeGasUsed": "0xcadda3",
      "logs": [
        {
          "address": "0xc9b53ab2679f573e480d01e0f49e2b5cfb7a3eab",
          "topics": [
            "0x8c5be1e5ebec7d5bd14f71427d1e84f3dd0314c0f7b2291e5b200ac8c7c3b925",
            "0x0000000000000000000000000e9852b16ae49c99b84b0241e3c6f4a5692c6b05",
            "0x000000000000000000000000f8d4d9ca30e87729448a8d9eadc5c990cfd40d64"
          ],
          "data": "0x0000000000000000000000000000000000000000000000000de0b6b3a7640000",
          "blockHash": "0xc81b0744cf54a2710a362a1635f10a8b61b366bfbf72f583c7312604de10bb1b",
          "blockNumber": "0x14b9f05",
          "transactionHash": "0xb4075105429602b199afac9727d18eb3bac3e20843609a0e164e5f7cfcd422ee",
          "transactionIndex": "0x1",
          "logIndex": "0xa",
          "removed": false
        }
      ],
      "logsBloom": "0x00000000000000000000000000000000000000000000000000000000000000000000000000000000000000000000000000000400000000000000000000200000000000000000000000000000000010000000000000000000000000000000000004001000000000000000000004000000000000000000000000000000000000000000000000000000000000000000000000000000000000000000000000000000020000000000000000000000400000000000000000000000000000000000000000000200000000000000000000000000000000000000000000000000000000000010000000000000000000000000000000000000000000000000000102000000",
      "type": "0x2",
      "transactionHash": "0xb4075105429602b199afac9727d18eb3bac3e20843609a0e164e5f7cfcd422ee",
      "transactionIndex": "0x1",
      "blockHash": "0xc81b0744cf54a2710a362a1635f10a8b61b366bfbf72f583c7312604de10bb1b",
      "blockNumber": "0x14b9f05",
      "gasUsed": "0xe023c",
      "effectiveGasPrice": "0x3b9aca00",
      "from": "0x0e9852b16ae49c99b84b0241e3c6f4a5692c6b05",
      "to": "0xc9b53ab2679f573e480d01e0f49e2b5cfb7a3eab",
      "contractAddress": null
    },
    {
      "status": "0x1",
      "cumulativeGasUsed": "0x1b0f08d",
      "logs": [
        {
          "address": "0xf8d4d9ca30e87729448a8d9eadc5c990cfd40d64",
          "topics": [
            "0xddf252ad1be2c89b69c2b068fc378daa952ba7f163c4a11628f55a4df523b3ef",
            "0x0000000000000000000000000000000000000000000000000000000000000000",
            "0x0000000000000000000000000e9852b16ae49c99b84b0241e3c6f4a5692c6b05"
          ],
          "data": "0x0000000000000000000000000000000000000000000000000000000000000000",
          "blockHash": "0x222569a6429339537669ccdee17220e5141b517281856797497b280718193869",
          "blockNumber": "0x14b9f0c",
          "transactionHash": "0x631016817b10bca62014bb00808f05629ed017ed246e3b321b1c67c67bf330b3",
          "transactionIndex": "0x2",
          "logIndex": "0x34",
          "removed": false
        },
        {
          "address": "0xcd49de806a0b8c41d36819f0fd76f68e48521178",
          "topics": [
            "0x9a3674ff60a2c4c28f4df6f1f1c4a5f9721658e388e8a66ac38bf55e7de4d953"
          ],
          "data": "0x0000000000000000000000000000000000000000000000000000000000000000000000000000000000000000000000000000000000000000002386f26fc10000",
          "blockHash": "0x222569a6429339537669ccdee17220e5141b517281856797497b280718193869",
          "blockNumber": "0x14b9f0c",
          "transactionHash": "0x631016817b10bca62014bb00808f05629ed017ed246e3b321b1c67c67bf330b3",
          "transactionIndex": "0x2",
          "logIndex": "0x35",
          "removed": false
        },
        {
          "address": "0xc9b53ab2679f573e480d01e0f49e2b5cfb7a3eab",
          "topics": [
            "0xddf252ad1be2c89b69c2b068fc378daa952ba7f163c4a11628f55a4df523b3ef",
            "0x0000000000000000000000000e9852b16ae49c99b84b0241e3c6f4a5692c6b05",
            "0x000000000000000000000000f8d4d9ca30e87729448a8d9eadc5c990cfd40d64"
          ],
          "data": "0x0000000000000000000000000000000000000000000000000de0b6b3a7640000",
          "blockHash": "0x222569a6429339537669ccdee17220e5141b517281856797497b280718193869",
          "blockNumber": "0x14b9f0c",
          "transactionHash": "0x631016817b10bca62014bb00808f05629ed017ed246e3b321b1c67c67bf330b3",
          "transactionIndex": "0x2",
          "logIndex": "0x36",
          "removed": false
        },
        {
          "address": "0xf8d4d9ca30e87729448a8d9eadc5c990cfd40d64",
          "topics": [
            "0xddf252ad1be2c89b69c2b068fc378daa952ba7f163c4a11628f55a4df523b3ef",
            "0x0000000000000000000000000000000000000000000000000000000000000000",
            "0x0000000000000000000000000e9852b16ae49c99b84b0241e3c6f4a5692c6b05"
          ],
          "data": "0x0000000000000000000000000000000000000000000000056bc75e2d63100000",
          "blockHash": "0x222569a6429339537669ccdee17220e5141b517281856797497b280718193869",
          "blockNumber": "0x14b9f0c",
          "transactionHash": "0x631016817b10bca62014bb00808f05629ed017ed246e3b321b1c67c67bf330b3",
          "transactionIndex": "0x2",
          "logIndex": "0x37",
          "removed": false
        },
        {
          "address": "0xf8d4d9ca30e87729448a8d9eadc5c990cfd40d64",
          "topics": [
            "0xdcbc1c05240f31ff3ad067ef1ee35ce4997762752e3a095284754544f4c709d7",
            "0x0000000000000000000000000e9852b16ae49c99b84b0241e3c6f4a5692c6b05",
            "0x0000000000000000000000000e9852b16ae49c99b84b0241e3c6f4a5692c6b05"
          ],
          "data": "0x0000000000000000000000000000000000000000000000000de0b6b3a76400000000000000000000000000000000000000000000000000056bc75e2d63100000",
          "blockHash": "0x222569a6429339537669ccdee17220e5141b517281856797497b280718193869",
          "blockNumber": "0x14b9f0c",
          "transactionHash": "0x631016817b10bca62014bb00808f05629ed017ed246e3b321b1c67c67bf330b3",
          "transactionIndex": "0x2",
          "logIndex": "0x38",
          "removed": false
        }
      ],
      "logsBloom": "0x00000000000000000000000080000000000000004000000000000000000000000000000000000000000000000000000000000400000000000000000000000000000000400000000000000008000010000000000000000000000000000000000004001002020000004000000004000800000000000004000000000010004000000000000000000008000000000000000000000000000000000000000000000000000000000000000000000000400000000000000000000000000000000000000000000202000000000000000000000000020000000008000000000000000020000000400008000000000000000000000000000000000000000000000102000000",
      "type": "0x2",
      "transactionHash": "0x631016817b10bca62014bb00808f05629ed017ed246e3b321b1c67c67bf330b3",
      "transactionIndex": "0x2",
      "blockHash": "0x222569a6429339537669ccdee17220e5141b517281856797497b280718193869",
      "blockNumber": "0x14b9f0c",
      "gasUsed": "0x1d5b1a",
      "effectiveGasPrice": "0x3b9aca00",
      "from": "0x0e9852b16ae49c99b84b0241e3c6f4a5692c6b05",
      "to": "0xf8d4d9ca30e87729448a8d9eadc5c990cfd40d64",
      "contractAddress": null
    }
  ],
  "libraries": [],
  "pending": [],
  "returns": {},
  "timestamp": 1753278168,
  "chain": 42793,
  "commit": "d2ff155"
}